{
  "_format": "hh-sol-artifact-1",
  "contractName": "GaslessTrading",
  "sourceName": "contracts/GaslessTrading.sol",
  "abi": [
    {
      "inputs": [
        {
          "internalType": "address",
          "name": "_entryPoint",
          "type": "address"
        },
        {
          "internalType": "address",
          "name": "_okxDexRouter",
          "type": "address"
        },
        {
          "internalType": "address",
          "name": "initialOwner",
          "type": "address"
        }
      ],
      "stateMutability": "nonpayable",
      "type": "constructor"
    },
    {
      "inputs": [
        {
          "internalType": "address",
          "name": "owner",
          "type": "address"
        }
      ],
      "name": "OwnableInvalidOwner",
      "type": "error"
    },
    {
      "inputs": [
        {
          "internalType": "address",
          "name": "account",
          "type": "address"
        }
      ],
      "name": "OwnableUnauthorizedAccount",
      "type": "error"
    },
    {
      "anonymous": false,
      "inputs": [
        {
          "indexed": true,
          "internalType": "address",
          "name": "previousOwner",
          "type": "address"
        },
        {
          "indexed": true,
          "internalType": "address",
          "name": "newOwner",
          "type": "address"
        }
      ],
      "name": "OwnershipTransferred",
      "type": "event"
    },
    {
      "inputs": [
        {
          "internalType": "address",
          "name": "token",
          "type": "address"
        },
        {
          "internalType": "uint256",
          "name": "amount",
          "type": "uint256"
        }
      ],
      "name": "approveRouter",
      "outputs": [],
      "stateMutability": "nonpayable",
      "type": "function"
    },
    {
      "inputs": [],
      "name": "entryPoint",
      "outputs": [
        {
          "internalType": "contract IEntryPoint",
          "name": "",
          "type": "address"
        }
      ],
      "stateMutability": "view",
      "type": "function"
    },
    {
      "inputs": [
        {
          "internalType": "address",
          "name": "tokenIn",
          "type": "address"
        },
        {
          "internalType": "address",
          "name": "tokenOut",
          "type": "address"
        },
        {
          "internalType": "uint256",
          "name": "amountIn",
          "type": "uint256"
        },
        {
          "internalType": "uint256",
          "name": "amountOutMin",
          "type": "uint256"
        },
        {
          "internalType": "address",
          "name": "recipient",
          "type": "address"
        }
      ],
      "name": "executeTrade",
      "outputs": [],
      "stateMutability": "nonpayable",
      "type": "function"
    },
    {
      "inputs": [],
      "name": "okxDexRouter",
      "outputs": [
        {
          "internalType": "contract IOKXDEXRouter",
          "name": "",
          "type": "address"
        }
      ],
      "stateMutability": "view",
      "type": "function"
    },
    {
      "inputs": [],
      "name": "owner",
      "outputs": [
        {
          "internalType": "address",
          "name": "",
          "type": "address"
        }
      ],
      "stateMutability": "view",
      "type": "function"
    },
    {
      "inputs": [],
      "name": "renounceOwnership",
      "outputs": [],
      "stateMutability": "nonpayable",
      "type": "function"
    },
    {
      "inputs": [
        {
          "internalType": "address",
          "name": "newOwner",
          "type": "address"
        }
      ],
      "name": "transferOwnership",
      "outputs": [],
      "stateMutability": "nonpayable",
      "type": "function"
    },
    {
      "inputs": [
        {
          "components": [
            {
              "internalType": "address",
              "name": "sender",
              "type": "address"
            },
            {
              "internalType": "uint256",
              "name": "nonce",
              "type": "uint256"
            },
            {
              "internalType": "bytes",
              "name": "callData",
              "type": "bytes"
            },
            {
              "internalType": "uint256",
              "name": "callGasLimit",
              "type": "uint256"
            },
            {
              "internalType": "uint256",
              "name": "verificationGasLimit",
              "type": "uint256"
            },
            {
              "internalType": "uint256",
              "name": "preVerificationGas",
              "type": "uint256"
            },
            {
              "internalType": "uint256",
              "name": "maxFeePerGas",
              "type": "uint256"
            },
            {
              "internalType": "uint256",
              "name": "maxPriorityFeePerGas",
              "type": "uint256"
            },
            {
              "internalType": "bytes",
              "name": "signature",
              "type": "bytes"
            }
          ],
          "internalType": "struct GaslessTrading.UserOperation",
          "name": "userOp",
          "type": "tuple"
        }
      ],
      "name": "validateUserOp",
      "outputs": [
        {
          "internalType": "uint256",
          "name": "",
          "type": "uint256"
        }
      ],
      "stateMutability": "view",
      "type": "function"
    },
    {
      "stateMutability": "payable",
      "type": "receive"
    }
  ],
  "bytecode": "0x60806040523480156200001157600080fd5b50604051620014bc380380620014bc833981810160405281019062000037919062000278565b80600073ffffffffffffffffffffffffffffffffffffffff168173ffffffffffffffffffffffffffffffffffffffff1603620000ad5760006040517f1e4fbdf7000000000000000000000000000000000000000000000000000000008152600401620000a49190620002e5565b60405180910390fd5b620000be816200014a60201b60201c565b5082600160006101000a81548173ffffffffffffffffffffffffffffffffffffffff021916908373ffffffffffffffffffffffffffffffffffffffff16021790555081600260006101000a81548173ffffffffffffffffffffffffffffffffffffffff021916908373ffffffffffffffffffffffffffffffffffffffff16021790555050505062000302565b60008060009054906101000a900473ffffffffffffffffffffffffffffffffffffffff169050816000806101000a81548173ffffffffffffffffffffffffffffffffffffffff021916908373ffffffffffffffffffffffffffffffffffffffff1602179055508173ffffffffffffffffffffffffffffffffffffffff168173ffffffffffffffffffffffffffffffffffffffff167f8be0079c531659141344cd1fd0a4f28419497f9722a3daafe3b4186f6b6457e060405160405180910390a35050565b600080fd5b600073ffffffffffffffffffffffffffffffffffffffff82169050919050565b6000620002408262000213565b9050919050565b620002528162000233565b81146200025e57600080fd5b50565b600081519050620002728162000247565b92915050565b6000806000606084860312156200029457620002936200020e565b5b6000620002a48682870162000261565b9350506020620002b78682870162000261565b9250506040620002ca8682870162000261565b9150509250925092565b620002df8162000233565b82525050565b6000602082019050620002fc6000830184620002d4565b92915050565b6111aa80620003126000396000f3fe60806040526004361061007f5760003560e01c806388a95e611161004e57806388a95e61146101335780638da5cb5b1461015c578063b0d691fe14610187578063f2fde38b146101b257610086565b806336ea19381461008b5780635d704a33146100b4578063715018a6146100f1578063887e43e21461010857610086565b3661008657005b600080fd5b34801561009757600080fd5b506100b260048036038101906100ad9190610915565b6101db565b005b3480156100c057600080fd5b506100db60048036038101906100d691906109b5565b6104a3565b6040516100e89190610a0d565b60405180910390f35b3480156100fd57600080fd5b506101066104aa565b005b34801561011457600080fd5b5061011d6104be565b60405161012a9190610a87565b60405180910390f35b34801561013f57600080fd5b5061015a60048036038101906101559190610aa2565b6104e4565b005b34801561016857600080fd5b5061017161064f565b60405161017e9190610af1565b60405180910390f35b34801561019357600080fd5b5061019c610678565b6040516101a99190610b2d565b60405180910390f35b3480156101be57600080fd5b506101d960048036038101906101d49190610b48565b61069e565b005b6101e3610724565b6000600267ffffffffffffffff811115610200576101ff610b75565b5b60405190808252806020026020018201604052801561022e5781602001602082028036833780820191505090505b509050858160008151811061024657610245610ba4565b5b602002602001019073ffffffffffffffffffffffffffffffffffffffff16908173ffffffffffffffffffffffffffffffffffffffff1681525050848160018151811061029557610294610ba4565b5b602002602001019073ffffffffffffffffffffffffffffffffffffffff16908173ffffffffffffffffffffffffffffffffffffffff1681525050600063472b43f360e01b858584866040516024016102f09493929190610c91565b604051602081830303815290604052907bffffffffffffffffffffffffffffffffffffffffffffffffffffffff19166020820180517bffffffffffffffffffffffffffffffffffffffffffffffffffffffff838183161783525050505090506000600167ffffffffffffffff81111561036c5761036b610b75565b5b60405190808252806020026020018201604052801561039f57816020015b606081526020019060019003908161038a5790505b50905033600083620493e0620186a0612710600080604051806020016040528060008152506040516020016103dc99989796959493929190610e83565b604051602081830303815290604052816000815181106103ff576103fe610ba4565b5b6020026020010181905250600160009054906101000a900473ffffffffffffffffffffffffffffffffffffffff1673ffffffffffffffffffffffffffffffffffffffff1663085982ed82306040518363ffffffff1660e01b815260040161046792919061104b565b600060405180830381600087803b15801561048157600080fd5b505af1158015610495573d6000803e3d6000fd5b505050505050505050505050565b6000919050565b6104b2610724565b6104bc60006107ab565b565b600260009054906101000a900473ffffffffffffffffffffffffffffffffffffffff1681565b6104ec610724565b60008273ffffffffffffffffffffffffffffffffffffffff16600260009054906101000a900473ffffffffffffffffffffffffffffffffffffffff168360405160240161053a92919061107b565b6040516020818303038152906040527f095ea7b3000000000000000000000000000000000000000000000000000000007bffffffffffffffffffffffffffffffffffffffffffffffffffffffff19166020820180517bffffffffffffffffffffffffffffffffffffffffffffffffffffffff83818316178352505050506040516105c491906110e0565b6000604051808303816000865af19150503d8060008114610601576040519150601f19603f3d011682016040523d82523d6000602084013e610606565b606091505b505090508061064a576040517f08c379a000000000000000000000000000000000000000000000000000000000815260040161064190611154565b60405180910390fd5b505050565b60008060009054906101000a900473ffffffffffffffffffffffffffffffffffffffff16905090565b600160009054906101000a900473ffffffffffffffffffffffffffffffffffffffff1681565b6106a6610724565b600073ffffffffffffffffffffffffffffffffffffffff168173ffffffffffffffffffffffffffffffffffffffff16036107185760006040517f1e4fbdf700000000000000000000000000000000000000000000000000000000815260040161070f9190610af1565b60405180910390fd5b610721816107ab565b50565b61072c61086f565b73ffffffffffffffffffffffffffffffffffffffff1661074a61064f565b73ffffffffffffffffffffffffffffffffffffffff16146107a95761076d61086f565b6040517f118cdaa70000000000000000000000000000000000000000000000000000000081526004016107a09190610af1565b60405180910390fd5b565b60008060009054906101000a900473ffffffffffffffffffffffffffffffffffffffff169050816000806101000a81548173ffffffffffffffffffffffffffffffffffffffff021916908373ffffffffffffffffffffffffffffffffffffffff1602179055508173ffffffffffffffffffffffffffffffffffffffff168173ffffffffffffffffffffffffffffffffffffffff167f8be0079c531659141344cd1fd0a4f28419497f9722a3daafe3b4186f6b6457e060405160405180910390a35050565b600033905090565b600080fd5b600080fd5b600073ffffffffffffffffffffffffffffffffffffffff82169050919050565b60006108ac82610881565b9050919050565b6108bc816108a1565b81146108c757600080fd5b50565b6000813590506108d9816108b3565b92915050565b6000819050919050565b6108f2816108df565b81146108fd57600080fd5b50565b60008135905061090f816108e9565b92915050565b600080600080600060a0868803121561093157610930610877565b5b600061093f888289016108ca565b9550506020610950888289016108ca565b945050604061096188828901610900565b935050606061097288828901610900565b9250506080610983888289016108ca565b9150509295509295909350565b600080fd5b600061012082840312156109ac576109ab610990565b5b81905092915050565b6000602082840312156109cb576109ca610877565b5b600082013567ffffffffffffffff8111156109e9576109e861087c565b5b6109f584828501610995565b91505092915050565b610a07816108df565b82525050565b6000602082019050610a2260008301846109fe565b92915050565b6000819050919050565b6000610a4d610a48610a4384610881565b610a28565b610881565b9050919050565b6000610a5f82610a32565b9050919050565b6000610a7182610a54565b9050919050565b610a8181610a66565b82525050565b6000602082019050610a9c6000830184610a78565b92915050565b60008060408385031215610ab957610ab8610877565b5b6000610ac7858286016108ca565b9250506020610ad885828601610900565b9150509250929050565b610aeb816108a1565b82525050565b6000602082019050610b066000830184610ae2565b92915050565b6000610b1782610a54565b9050919050565b610b2781610b0c565b82525050565b6000602082019050610b426000830184610b1e565b92915050565b600060208284031215610b5e57610b5d610877565b5b6000610b6c848285016108ca565b91505092915050565b7f4e487b7100000000000000000000000000000000000000000000000000000000600052604160045260246000fd5b7f4e487b7100000000000000000000000000000000000000000000000000000000600052603260045260246000fd5b600081519050919050565b600082825260208201905092915050565b6000819050602082019050919050565b610c08816108a1565b82525050565b6000610c1a8383610bff565b60208301905092915050565b6000602082019050919050565b6000610c3e82610bd3565b610c488185610bde565b9350610c5383610bef565b8060005b83811015610c84578151610c6b8882610c0e565b9750610c7683610c26565b925050600181019050610c57565b5085935050505092915050565b6000608082019050610ca660008301876109fe565b610cb360208301866109fe565b8181036040830152610cc58185610c33565b9050610cd46060830184610ae2565b95945050505050565b6000819050919050565b600060ff82169050919050565b6000610d0f610d0a610d0584610cdd565b610a28565b610ce7565b9050919050565b610d1f81610cf4565b82525050565b600081519050919050565b600082825260208201905092915050565b60005b83811015610d5f578082015181840152602081019050610d44565b60008484015250505050565b6000601f19601f8301169050919050565b6000610d8782610d25565b610d918185610d30565b9350610da1818560208601610d41565b610daa81610d6b565b840191505092915050565b6000819050919050565b600062ffffff82169050919050565b6000610de9610de4610ddf84610db5565b610a28565b610dbf565b9050919050565b610df981610dce565b82525050565b6000819050919050565b6000610e24610e1f610e1a84610dff565b610a28565b610dbf565b9050919050565b610e3481610e09565b82525050565b6000819050919050565b600061ffff82169050919050565b6000610e6d610e68610e6384610e3a565b610a28565b610e44565b9050919050565b610e7d81610e52565b82525050565b600061012082019050610e99600083018c610ae2565b610ea6602083018b610d16565b8181036040830152610eb8818a610d7c565b9050610ec76060830189610df0565b610ed46080830188610e2b565b610ee160a0830187610e74565b610eee60c0830186610d16565b610efb60e0830185610d16565b818103610100830152610f0e8184610d7c565b90509a9950505050505050505050565b600081519050919050565b600082825260208201905092915050565b6000819050602082019050919050565b600082825260208201905092915050565b6000610f6682610d25565b610f708185610f4a565b9350610f80818560208601610d41565b610f8981610d6b565b840191505092915050565b6000610fa08383610f5b565b905092915050565b6000602082019050919050565b6000610fc082610f1e565b610fca8185610f29565b935083602082028501610fdc85610f3a565b8060005b858110156110185784840389528151610ff98582610f94565b945061100483610fa8565b925060208a01995050600181019050610fe0565b50829750879550505050505092915050565b600061103582610881565b9050919050565b6110458161102a565b82525050565b600060408201905081810360008301526110658185610fb5565b9050611074602083018461103c565b9392505050565b60006040820190506110906000830185610ae2565b61109d60208301846109fe565b9392505050565b600081905092915050565b60006110ba82610d25565b6110c481856110a4565b93506110d4818560208601610d41565b80840191505092915050565b60006110ec82846110af565b915081905092915050565b600082825260208201905092915050565b7f417070726f76616c206661696c65640000000000000000000000000000000000600082015250565b600061113e600f836110f7565b915061114982611108565b602082019050919050565b6000602082019050818103600083015261116d81611131565b905091905056fea2646970667358221220e8067251bd91efd3038d2a29c9ffeb607cdd526e7d7cab9a8113845e7da083b364736f6c63430008140033",
  "linkReferences": {},
  "deployedLinkReferences": {}
}